:020000040000FA
:06000000A6EF01F0120062
:020006001200E6
:020008001200E4
:06000A00C26A700ED36E05
:060010009690849012009E
:0100160000E9
:08001800F2A402D023EF00F076
:0C0020001200D08E9F8AF28EF28C12002B
:04002C0002001600B8
:100030000000890000000100000082030000600051
:0600400000001E0000009C
:0A004600DACFE4FFE2CFDAFFE9CFE2
:10005000E4FFEACFE4FFF6CFE4FFF7CFE4FFF5CF0C
:10006000E4FFF3CFE4FFF4CFE4FFFACFE4FF00EEC8
:1000700000F00B0EE80403E3EECFE4FFFBD700EE45
:100080000BF0000EE80403E3EECFE4FFFBD7E652EB
:10009000F29400016E2B000E6F23702B7123722BD4
:1000A0007323742B7523762B77237807795B793547
:1000B00004E278510008000E795508E37A2B000E0F
:1000C0007B237C237D23C80E786F796B625163118B
:1000D00007E005D063C0FAFF00016251F96EFADF54
:1000E00060C0E6FF61C0E6FF5EEC01F0E552E5525C
:1000F000E55200EE0AF0000EE80403E3E5CFEDFF61
:10010000FBD700EE0AF00B0EE80403E3E5CFEDFFAA
:10011000FBD7E5CFFAFFE5CFF4FFE5CFF3FFE5CF5F
:10012000F5FFE5CFF7FFE5CFF6FFE5CFEAFFE5CF37
:08013000E9FFE5CFDAFF110041
:08013800D9CFE6FFE1CFD9FFAA
:100140009F0EE66E7AEC01F0E552FD0EDBCF60F01B
:10015000FE0EDBCF61F0FB0EDBCF62F0FC0EDBCFDF
:1001600063F0F194FD0EDBCFE6FFFE0EDBCFE6FF82
:100170005EEC01F0E552E552E552E7CFD9FF1200FF
:10018000D9CFE6FFE1CFD9FF040EE126F29A7AC07B
:10019000DFFF010E7BC0DBFF020E7CC0DBFF030E26
:1001A0007DC0DBFFF28ADECF04F0DECF05F0DECFCC
:1001B00006F0DDCF07F0DD52DD52040EE15C03E214
:1001C00000D0E16AE552E16EE552E7CFD9FF1200B7
:1001D000F29E00017A6B7B6B7C6B7D6BF28E120062
:1001E0002C0EF66E000EF76E000EF86E0001090080
:1001F000F550836F0900F550846F03E1836701D0E8
:100200003DD00900F5507E6F0900F5507F6F090061
:10021000F550806F09000900F550E96E0900F550AE
:10022000EA6E090009000900F550816F0900F550D8
:10023000826F09000900F6CF85F0F7CF86F0F8CF7E
:1002400087F07EC0F6FF7FC0F7FF80C0F8FF000197
:10025000815302E1825307E00900F550EE6E8107F9
:10026000F8E28207F9D785C0F6FF86C0F7FF87C09E
:0E027000F8FF00018307000E845BBFD7120069
:02027E0005EC8D
:1002800000F0000EE66EE66AE00EE66EB10EE66E77
:100290009CEC00F0E552E552E552E55211EC00F01D
:1002A0000001640E6E5D000E6F5905E3B7EC01F0BE
:0C02B00000016E6B6F6B0400F3D71200AE
:0402BC00D9CFE6FFB1
:1002C000DACFE6FFE1CFD9FFE2CFDAFFE652E6521E
:1002D000FC0EDBCFDEFFDBCFDDFF010EDB50D76E88
:1002E000DF50D66EE552E552E552E5CFDAFFE7CFB3
:0402F000D9FF120020
:0C02F400D9CFE6FFDACFE6FFE1CFD9FF5B
:10030000E2CFDAFFFD0EDB507F0BD56ED76AD66ADF
:10031000F294FD0EDBAE02D0F28A01D0F29AD58EB5
:0C032000E552E5CFDAFFE7CFD9FF12006D
:04032C00C00EF36E9E
:1003300000EE00F00E0E01D81200EA6002D0EE6A64
:0C034000FCD7F350E9601200EE6AFCD715
:04034C001DEE00F0B2
:100350002DEE00F0F86A0A9CF0EC00F003EC00F0DF
:080360003FEC01F0FBD7120095
:080368000001896B1200000185
:10037000890503E1896B849003D0010E896F848025
:02038000120069
:0E03820000000000000000000000000000006D
:1003900000000000000000000000C8000000000095
:00000001FF
